{
  "_format": "hh3-artifact-1",
  "contractName": "MockAavePool",
  "sourceName": "contracts/mocks/MockContracts.sol",
  "abi": [
    {
      "inputs": [
        {
          "internalType": "address",
          "name": "_aUsdtToken",
          "type": "address"
        }
      ],
      "stateMutability": "nonpayable",
      "type": "constructor"
    },
    {
      "inputs": [],
      "name": "aUsdtToken",
      "outputs": [
        {
          "internalType": "address",
          "name": "",
          "type": "address"
        }
      ],
      "stateMutability": "view",
      "type": "function"
    },
    {
      "inputs": [
        {
          "internalType": "address",
          "name": "",
          "type": "address"
        },
        {
          "internalType": "address",
          "name": "",
          "type": "address"
        }
      ],
      "name": "balances",
      "outputs": [
        {
          "internalType": "uint256",
          "name": "",
          "type": "uint256"
        }
      ],
      "stateMutability": "view",
      "type": "function"
    },
    {
      "inputs": [
        {
          "internalType": "address",
          "name": "user",
          "type": "address"
        }
      ],
      "name": "getUserAccountData",
      "outputs": [
        {
          "internalType": "uint256",
          "name": "totalCollateralBase",
          "type": "uint256"
        },
        {
          "internalType": "uint256",
          "name": "totalDebtBase",
          "type": "uint256"
        },
        {
          "internalType": "uint256",
          "name": "availableBorrowsBase",
          "type": "uint256"
        },
        {
          "internalType": "uint256",
          "name": "currentLiquidationThreshold",
          "type": "uint256"
        },
        {
          "internalType": "uint256",
          "name": "ltv",
          "type": "uint256"
        },
        {
          "internalType": "uint256",
          "name": "healthFactor",
          "type": "uint256"
        }
      ],
      "stateMutability": "view",
      "type": "function"
    },
    {
      "inputs": [
        {
          "internalType": "address",
          "name": "asset",
          "type": "address"
        },
        {
          "internalType": "uint256",
          "name": "amount",
          "type": "uint256"
        },
        {
          "internalType": "address",
          "name": "onBehalfOf",
          "type": "address"
        },
        {
          "internalType": "uint16",
          "name": "referralCode",
          "type": "uint16"
        }
      ],
      "name": "supply",
      "outputs": [],
      "stateMutability": "nonpayable",
      "type": "function"
    },
    {
      "inputs": [
        {
          "internalType": "address",
          "name": "",
          "type": "address"
        }
      ],
      "name": "totalSupplied",
      "outputs": [
        {
          "internalType": "uint256",
          "name": "",
          "type": "uint256"
        }
      ],
      "stateMutability": "view",
      "type": "function"
    },
    {
      "inputs": [
        {
          "internalType": "address",
          "name": "asset",
          "type": "address"
        },
        {
          "internalType": "uint256",
          "name": "amount",
          "type": "uint256"
        },
        {
          "internalType": "address",
          "name": "to",
          "type": "address"
        }
      ],
      "name": "withdraw",
      "outputs": [
        {
          "internalType": "uint256",
          "name": "",
          "type": "uint256"
        }
      ],
      "stateMutability": "nonpayable",
      "type": "function"
    }
  ],
  "bytecode": "0x60a034607457601f6106b938819003918201601f19168301916001600160401b03831184841017607857808492602094604052833981010312607457516001600160a01b038116810360745760805260405161062c908161008d823960805181818161011d01528181610217015261046b0152f35b5f80fd5b634e487b7160e01b5f52604160045260245ffdfe6080806040526004361015610012575f80fd5b5f905f3560e01c908163617ba037146103ab5750806369328dec146101855780636bbe56cf1461014c578063b9485f3a14610107578063bf92857c146100c35763c23f001f14610060575f80fd5b346100c05760403660031901126100c057610079610510565b60243591906001600160a01b03831683036100be579060409160018060a01b0316815280602052209060018060a01b03165f52602052602060405f2054604051908152f35b505b80fd5b50346100c05760203660031901126100c05760c0906100e0610510565b506040519080825280602083015280604083015280606083015280608083015260a0820152f35b50346100c057806003193601126100c0576040517f00000000000000000000000000000000000000000000000000000000000000006001600160a01b03168152602090f35b50346100c05760203660031901126100c0576020906040906001600160a01b03610174610510565b168152600183522054604051908152f35b50346100c05760603660031901126100c05761019f610510565b602435906101ab610526565b6001600160a01b0390911680845260208481526040808620335f9081529252902054909290811161036f5782845260208481526040808620335f9081529252902080546101f99083906105e9565b90558284526001602052604084206102128282546105e9565b9055837f00000000000000000000000000000000000000000000000000000000000000006001600160a01b0316803b156100be57604051632770a7eb60e21b8152336004820152602481018490529082908290604490829084905af180156103645761034b575b5050600581028181046005148215171561033757916102a160209260646102d89504906105c8565b60405163a9059cbb60e01b81526001600160a01b039092166004830152602482018190529390928391908290879082906044820190565b03925af190811561032c57906102f791602094916102ff575b5061058a565b604051908152f35b61031f9150843d8611610325575b610317818361053c565b810190610572565b5f6102f1565b503d61030d565b6040513d85823e3d90fd5b634e487b7160e01b85526011600452602485fd5b816103559161053c565b61036057835f610279565b8380fd5b6040513d84823e3d90fd5b60405162461bcd60e51b8152602060048201526014602482015273496e73756666696369656e742062616c616e636560601b6044820152606490fd5b9050346104f35760803660031901126104f3576103c6610510565b602435916103d2610526565b9160643561ffff8116036104f3576323b872dd60e01b8252336004830152306024830152604482018490526001600160a01b0316906020816064815f865af180156104e857610427915f916104f7575061058a565b805f525f60205260405f2060018060a01b0383165f5260205260405f2061044f8482546105c8565b90555f52600160205260405f206104678382546105c8565b90557f00000000000000000000000000000000000000000000000000000000000000006001600160a01b031691823b156104f3576040516340c10f1960e01b81526001600160a01b039290921660048301526024820152905f908290604490829084905af180156104e8576104da575080f35b6104e691505f9061053c565b005b6040513d5f823e3d90fd5b5f80fd5b61031f915060203d60201161032557610317818361053c565b600435906001600160a01b03821682036104f357565b604435906001600160a01b03821682036104f357565b90601f8019910116810190811067ffffffffffffffff82111761055e57604052565b634e487b7160e01b5f52604160045260245ffd5b908160209103126104f3575180151581036104f35790565b1561059157565b60405162461bcd60e51b815260206004820152600f60248201526e151c985b9cd9995c8819985a5b1959608a1b6044820152606490fd5b919082018092116105d557565b634e487b7160e01b5f52601160045260245ffd5b919082039182116105d55756fea2646970667358221220baecaff7a8b4b9b5ba812fff353908ed75ddbc0c1089677bf5f360ebc3252ef064736f6c634300081c0033",
  "linkReferences": {},
  "deployedLinkReferences": {},
  "immutableReferences": {
    "1184": [
      {
        "length": 32,
        "start": 285
      },
      {
        "length": 32,
        "start": 535
      },
      {
        "length": 32,
        "start": 1131
      }
    ]
  },
  "inputSourceName": "project/contracts/mocks/MockContracts.sol",
  "buildInfoId": "solc-0_8_28-902b97e54a9831a1a09d5fd485d7386ff306c533"
}