{
  "_format": "hh3-artifact-1",
  "contractName": "MockAToken",
  "sourceName": "contracts/mocks/MockContracts.sol",
  "abi": [
    {
      "inputs": [
        {
          "internalType": "address",
          "name": "_underlying",
          "type": "address"
        },
        {
          "internalType": "string",
          "name": "_name",
          "type": "string"
        },
        {
          "internalType": "string",
          "name": "_symbol",
          "type": "string"
        }
      ],
      "stateMutability": "nonpayable",
      "type": "constructor"
    },
    {
      "inputs": [
        {
          "internalType": "address",
          "name": "spender",
          "type": "address"
        },
        {
          "internalType": "uint256",
          "name": "allowance",
          "type": "uint256"
        },
        {
          "internalType": "uint256",
          "name": "needed",
          "type": "uint256"
        }
      ],
      "name": "ERC20InsufficientAllowance",
      "type": "error"
    },
    {
      "inputs": [
        {
          "internalType": "address",
          "name": "sender",
          "type": "address"
        },
        {
          "internalType": "uint256",
          "name": "balance",
          "type": "uint256"
        },
        {
          "internalType": "uint256",
          "name": "needed",
          "type": "uint256"
        }
      ],
      "name": "ERC20InsufficientBalance",
      "type": "error"
    },
    {
      "inputs": [
        {
          "internalType": "address",
          "name": "approver",
          "type": "address"
        }
      ],
      "name": "ERC20InvalidApprover",
      "type": "error"
    },
    {
      "inputs": [
        {
          "internalType": "address",
          "name": "receiver",
          "type": "address"
        }
      ],
      "name": "ERC20InvalidReceiver",
      "type": "error"
    },
    {
      "inputs": [
        {
          "internalType": "address",
          "name": "sender",
          "type": "address"
        }
      ],
      "name": "ERC20InvalidSender",
      "type": "error"
    },
    {
      "inputs": [
        {
          "internalType": "address",
          "name": "spender",
          "type": "address"
        }
      ],
      "name": "ERC20InvalidSpender",
      "type": "error"
    },
    {
      "inputs": [
        {
          "internalType": "address",
          "name": "owner",
          "type": "address"
        }
      ],
      "name": "OwnableInvalidOwner",
      "type": "error"
    },
    {
      "inputs": [
        {
          "internalType": "address",
          "name": "account",
          "type": "address"
        }
      ],
      "name": "OwnableUnauthorizedAccount",
      "type": "error"
    },
    {
      "anonymous": false,
      "inputs": [
        {
          "indexed": true,
          "internalType": "address",
          "name": "owner",
          "type": "address"
        },
        {
          "indexed": true,
          "internalType": "address",
          "name": "spender",
          "type": "address"
        },
        {
          "indexed": false,
          "internalType": "uint256",
          "name": "value",
          "type": "uint256"
        }
      ],
      "name": "Approval",
      "type": "event"
    },
    {
      "anonymous": false,
      "inputs": [
        {
          "indexed": true,
          "internalType": "address",
          "name": "previousOwner",
          "type": "address"
        },
        {
          "indexed": true,
          "internalType": "address",
          "name": "newOwner",
          "type": "address"
        }
      ],
      "name": "OwnershipTransferred",
      "type": "event"
    },
    {
      "anonymous": false,
      "inputs": [
        {
          "indexed": true,
          "internalType": "address",
          "name": "from",
          "type": "address"
        },
        {
          "indexed": true,
          "internalType": "address",
          "name": "to",
          "type": "address"
        },
        {
          "indexed": false,
          "internalType": "uint256",
          "name": "value",
          "type": "uint256"
        }
      ],
      "name": "Transfer",
      "type": "event"
    },
    {
      "inputs": [],
      "name": "UNDERLYING_ASSET_ADDRESS",
      "outputs": [
        {
          "internalType": "address",
          "name": "",
          "type": "address"
        }
      ],
      "stateMutability": "view",
      "type": "function"
    },
    {
      "inputs": [
        {
          "internalType": "address",
          "name": "owner",
          "type": "address"
        },
        {
          "internalType": "address",
          "name": "spender",
          "type": "address"
        }
      ],
      "name": "allowance",
      "outputs": [
        {
          "internalType": "uint256",
          "name": "",
          "type": "uint256"
        }
      ],
      "stateMutability": "view",
      "type": "function"
    },
    {
      "inputs": [
        {
          "internalType": "address",
          "name": "spender",
          "type": "address"
        },
        {
          "internalType": "uint256",
          "name": "value",
          "type": "uint256"
        }
      ],
      "name": "approve",
      "outputs": [
        {
          "internalType": "bool",
          "name": "",
          "type": "bool"
        }
      ],
      "stateMutability": "nonpayable",
      "type": "function"
    },
    {
      "inputs": [
        {
          "internalType": "address",
          "name": "account",
          "type": "address"
        }
      ],
      "name": "balanceOf",
      "outputs": [
        {
          "internalType": "uint256",
          "name": "",
          "type": "uint256"
        }
      ],
      "stateMutability": "view",
      "type": "function"
    },
    {
      "inputs": [
        {
          "internalType": "address",
          "name": "from",
          "type": "address"
        },
        {
          "internalType": "uint256",
          "name": "amount",
          "type": "uint256"
        }
      ],
      "name": "burn",
      "outputs": [],
      "stateMutability": "nonpayable",
      "type": "function"
    },
    {
      "inputs": [],
      "name": "decimals",
      "outputs": [
        {
          "internalType": "uint8",
          "name": "",
          "type": "uint8"
        }
      ],
      "stateMutability": "view",
      "type": "function"
    },
    {
      "inputs": [],
      "name": "getIncentivesController",
      "outputs": [
        {
          "internalType": "address",
          "name": "",
          "type": "address"
        }
      ],
      "stateMutability": "pure",
      "type": "function"
    },
    {
      "inputs": [
        {
          "internalType": "address",
          "name": "user",
          "type": "address"
        }
      ],
      "name": "getScaledBalanceOf",
      "outputs": [
        {
          "internalType": "uint256",
          "name": "",
          "type": "uint256"
        }
      ],
      "stateMutability": "view",
      "type": "function"
    },
    {
      "inputs": [
        {
          "internalType": "address",
          "name": "to",
          "type": "address"
        },
        {
          "internalType": "uint256",
          "name": "amount",
          "type": "uint256"
        }
      ],
      "name": "mint",
      "outputs": [],
      "stateMutability": "nonpayable",
      "type": "function"
    },
    {
      "inputs": [],
      "name": "name",
      "outputs": [
        {
          "internalType": "string",
          "name": "",
          "type": "string"
        }
      ],
      "stateMutability": "view",
      "type": "function"
    },
    {
      "inputs": [],
      "name": "owner",
      "outputs": [
        {
          "internalType": "address",
          "name": "",
          "type": "address"
        }
      ],
      "stateMutability": "view",
      "type": "function"
    },
    {
      "inputs": [],
      "name": "renounceOwnership",
      "outputs": [],
      "stateMutability": "nonpayable",
      "type": "function"
    },
    {
      "inputs": [],
      "name": "scaledTotalSupply",
      "outputs": [
        {
          "internalType": "uint256",
          "name": "",
          "type": "uint256"
        }
      ],
      "stateMutability": "view",
      "type": "function"
    },
    {
      "inputs": [],
      "name": "symbol",
      "outputs": [
        {
          "internalType": "string",
          "name": "",
          "type": "string"
        }
      ],
      "stateMutability": "view",
      "type": "function"
    },
    {
      "inputs": [],
      "name": "totalSupply",
      "outputs": [
        {
          "internalType": "uint256",
          "name": "",
          "type": "uint256"
        }
      ],
      "stateMutability": "view",
      "type": "function"
    },
    {
      "inputs": [
        {
          "internalType": "address",
          "name": "to",
          "type": "address"
        },
        {
          "internalType": "uint256",
          "name": "value",
          "type": "uint256"
        }
      ],
      "name": "transfer",
      "outputs": [
        {
          "internalType": "bool",
          "name": "",
          "type": "bool"
        }
      ],
      "stateMutability": "nonpayable",
      "type": "function"
    },
    {
      "inputs": [
        {
          "internalType": "address",
          "name": "from",
          "type": "address"
        },
        {
          "internalType": "address",
          "name": "to",
          "type": "address"
        },
        {
          "internalType": "uint256",
          "name": "value",
          "type": "uint256"
        }
      ],
      "name": "transferFrom",
      "outputs": [
        {
          "internalType": "bool",
          "name": "",
          "type": "bool"
        }
      ],
      "stateMutability": "nonpayable",
      "type": "function"
    },
    {
      "inputs": [
        {
          "internalType": "address",
          "name": "newOwner",
          "type": "address"
        }
      ],
      "name": "transferOwnership",
      "outputs": [],
      "stateMutability": "nonpayable",
      "type": "function"
    }
  ],
  "bytecode": "0x60a06040523461039657610d4f803803806100198161039a565b928339810190606081830312610396578051906001600160a01b03821682036103965760208101516001600160401b038111610396578361005b9183016103bf565b60408201519093906001600160401b0381116103965761007b92016103bf565b82519091906001600160401b0381116102a757600354600181811c9116801561038c575b602082101461028957601f8111610329575b506020601f82116001146102c657819293945f926102bb575b50508160011b915f199060031b1c1916176003555b81516001600160401b0381116102a757600454600181811c9116801561029d575b602082101461028957601f8111610226575b50602092601f82116001146101c557928192935f926101ba575b50508160011b915f199060031b1c1916176004555b33156101a75760058054336001600160a01b0319821681179092556040519291906001600160a01b03167f8be0079c531659141344cd1fd0a4f28419497f9722a3daafe3b4186f6b6457e05f80a360805261093e90816104118239608051816101ee0152f35b631e4fbdf760e01b5f525f60045260245ffd5b015190505f8061012c565b601f1982169360045f52805f20915f5b86811061020e57508360019596106101f6575b505050811b01600455610141565b01515f1960f88460031b161c191690555f80806101e8565b919260206001819286850151815501940192016101d5565b60045f527f8a35acfbc15ff81a39ae7d344fd709f28e8600b4aa8c65c6b64bfe7fe36bd19b601f830160051c8101916020841061027f575b601f0160051c01905b8181106102745750610112565b5f8155600101610267565b909150819061025e565b634e487b7160e01b5f52602260045260245ffd5b90607f1690610100565b634e487b7160e01b5f52604160045260245ffd5b015190505f806100ca565b601f1982169060035f52805f20915f5b818110610311575095836001959697106102f9575b505050811b016003556100df565b01515f1960f88460031b161c191690555f80806102eb565b9192602060018192868b0151815501940192016102d6565b60035f527fc2575a0e9e593c00f959f8c92f12db2869c3395a3b0502d05e2516446f71f85b601f830160051c81019160208410610382575b601f0160051c01905b81811061037757506100b1565b5f815560010161036a565b9091508190610361565b90607f169061009f565b5f80fd5b6040519190601f01601f191682016001600160401b038111838210176102a757604052565b81601f82011215610396578051906001600160401b0382116102a7576103ee601f8301601f191660200161039a565b928284526020838301011161039657815f9260208093018386015e830101529056fe6080806040526004361015610012575f80fd5b5f3560e01c90816306fdde031461072557508063095ea7b3146106a357806318160ddd146101bc57806323b872dd146105c4578063313ce567146105a95780633b6c7707146104bd57806340c10f19146104fd57806370a08231146104bd578063715018a61461046257806375d26413146104485780638da5cb5b1461042057806395d89b41146103055780639dc29fac1461024e578063a9059cbb1461021d578063b16a19de146101d9578063b1bf962d146101bc578063dd62ed3e1461016c5763f2fde38b146100e2575f80fd5b34610168576020366003190112610168576100fb61081e565b6101036108e1565b6001600160a01b0316801561015557600580546001600160a01b0319811683179091556001600160a01b03167f8be0079c531659141344cd1fd0a4f28419497f9722a3daafe3b4186f6b6457e05f80a3005b631e4fbdf760e01b5f525f60045260245ffd5b5f80fd5b346101685760403660031901126101685761018561081e565b61018d610834565b6001600160a01b039182165f908152600160209081526040808320949093168252928352819020549051908152f35b34610168575f366003190112610168576020600254604051908152f35b34610168575f366003190112610168576040517f00000000000000000000000000000000000000000000000000000000000000006001600160a01b03168152602090f35b346101685760403660031901126101685761024361023961081e565b602435903361084a565b602060405160018152f35b346101685760403660031901126101685761026761081e565b602435906102736108e1565b6001600160a01b031680156102f257805f525f60205260405f20548281106102d9576020835f947fddf252ad1be2c89b69c2b068fc378daa952ba7f163c4a11628f55a4df523b3ef938587528684520360408620558060025403600255604051908152a3005b9063391434e360e21b5f5260045260245260445260645ffd5b634b637e8f60e11b5f525f60045260245ffd5b34610168575f366003190112610168576040515f6004548060011c90600181168015610416575b602083108114610402578285529081156103e65750600114610391575b50819003601f01601f191681019067ffffffffffffffff82118183101761037d57610379829182604052826107f4565b0390f35b634e487b7160e01b5f52604160045260245ffd5b905060045f527f8a35acfbc15ff81a39ae7d344fd709f28e8600b4aa8c65c6b64bfe7fe36bd19b5f905b8282106103d057506020915082010182610349565b60018160209254838588010152019101906103bb565b90506020925060ff191682840152151560051b82010182610349565b634e487b7160e01b5f52602260045260245ffd5b91607f169161032c565b34610168575f366003190112610168576005546040516001600160a01b039091168152602090f35b34610168575f3660031901126101685760206040515f8152f35b34610168575f3660031901126101685761047a6108e1565b600580546001600160a01b031981169091555f906001600160a01b03167f8be0079c531659141344cd1fd0a4f28419497f9722a3daafe3b4186f6b6457e08280a3005b346101685760203660031901126101685760206104f56104db61081e565b6001600160a01b03165f9081526020819052604090205490565b604051908152f35b346101685760403660031901126101685761051661081e565b602435906105226108e1565b6001600160a01b031690811561059657600254908082018092116105825760207fddf252ad1be2c89b69c2b068fc378daa952ba7f163c4a11628f55a4df523b3ef915f9360025584845283825260408420818154019055604051908152a3005b634e487b7160e01b5f52601160045260245ffd5b63ec442f0560e01b5f525f60045260245ffd5b34610168575f36600319011261016857602060405160068152f35b34610168576060366003190112610168576105dd61081e565b6105e5610834565b6001600160a01b0382165f818152600160209081526040808320338452909152902054909260443592915f198110610623575b50610243935061084a565b83811061068857841561067557331561066257610243945f52600160205260405f2060018060a01b0333165f526020528360405f209103905584610618565b634a1406b160e11b5f525f60045260245ffd5b63e602df0560e01b5f525f60045260245ffd5b8390637dc7a0d960e11b5f523360045260245260445260645ffd5b34610168576040366003190112610168576106bc61081e565b602435903315610675576001600160a01b031690811561066257335f52600160205260405f20825f526020528060405f20556040519081527f8c5be1e5ebec7d5bd14f71427d1e84f3dd0314c0f7b2291e5b200ac8c7c3b92560203392a3602060405160018152f35b34610168575f366003190112610168575f6003548060011c906001811680156107ea575b602083108114610402578285529081156103e657506001146107955750819003601f01601f191681019067ffffffffffffffff82118183101761037d57610379829182604052826107f4565b905060035f527fc2575a0e9e593c00f959f8c92f12db2869c3395a3b0502d05e2516446f71f85b5f905b8282106107d457506020915082010182610349565b60018160209254838588010152019101906107bf565b91607f1691610749565b602060409281835280519182918282860152018484015e5f828201840152601f01601f1916010190565b600435906001600160a01b038216820361016857565b602435906001600160a01b038216820361016857565b6001600160a01b03169081156102f2576001600160a01b031691821561059657815f525f60205260405f20548181106108c857817fddf252ad1be2c89b69c2b068fc378daa952ba7f163c4a11628f55a4df523b3ef92602092855f525f84520360405f2055845f525f825260405f20818154019055604051908152a3565b8263391434e360e21b5f5260045260245260445260645ffd5b6005546001600160a01b031633036108f557565b63118cdaa760e01b5f523360045260245ffdfea2646970667358221220bf8459bc6d83d63f7c334d073821747ff1770105148411ae3de79911e58a1eba64736f6c634300081c0033",
  "linkReferences": {},
  "deployedLinkReferences": {},
  "immutableReferences": {
    "1452": [
      {
        "length": 32,
        "start": 494
      }
    ]
  },
  "inputSourceName": "project/contracts/mocks/MockContracts.sol",
  "buildInfoId": "solc-0_8_28-902b97e54a9831a1a09d5fd485d7386ff306c533"
}