{
  "_format": "hh3-artifact-1",
  "contractName": "CourseManager",
  "sourceName": "contracts/CourseManager.sol",
  "abi": [
    {
      "inputs": [
        {
          "internalType": "address",
          "name": "_ydToken",
          "type": "address"
        },
        {
          "internalType": "address",
          "name": "initialOwner",
          "type": "address"
        }
      ],
      "stateMutability": "nonpayable",
      "type": "constructor"
    },
    {
      "inputs": [
        {
          "internalType": "address",
          "name": "owner",
          "type": "address"
        }
      ],
      "name": "OwnableInvalidOwner",
      "type": "error"
    },
    {
      "inputs": [
        {
          "internalType": "address",
          "name": "account",
          "type": "address"
        }
      ],
      "name": "OwnableUnauthorizedAccount",
      "type": "error"
    },
    {
      "inputs": [],
      "name": "ReentrancyGuardReentrantCall",
      "type": "error"
    },
    {
      "inputs": [
        {
          "internalType": "address",
          "name": "token",
          "type": "address"
        }
      ],
      "name": "SafeERC20FailedOperation",
      "type": "error"
    },
    {
      "anonymous": false,
      "inputs": [
        {
          "indexed": true,
          "internalType": "string",
          "name": "courseId",
          "type": "string"
        },
        {
          "indexed": false,
          "internalType": "string",
          "name": "title",
          "type": "string"
        },
        {
          "indexed": false,
          "internalType": "uint256",
          "name": "price",
          "type": "uint256"
        },
        {
          "indexed": false,
          "internalType": "address",
          "name": "creator",
          "type": "address"
        }
      ],
      "name": "CourseCreated",
      "type": "event"
    },
    {
      "anonymous": false,
      "inputs": [
        {
          "indexed": true,
          "internalType": "string",
          "name": "courseId",
          "type": "string"
        },
        {
          "indexed": true,
          "internalType": "address",
          "name": "buyer",
          "type": "address"
        },
        {
          "indexed": false,
          "internalType": "uint256",
          "name": "price",
          "type": "uint256"
        }
      ],
      "name": "CoursePurchased",
      "type": "event"
    },
    {
      "anonymous": false,
      "inputs": [
        {
          "indexed": true,
          "internalType": "string",
          "name": "courseId",
          "type": "string"
        },
        {
          "indexed": false,
          "internalType": "string",
          "name": "title",
          "type": "string"
        },
        {
          "indexed": false,
          "internalType": "string",
          "name": "description",
          "type": "string"
        },
        {
          "indexed": false,
          "internalType": "uint256",
          "name": "price",
          "type": "uint256"
        }
      ],
      "name": "CourseUpdated",
      "type": "event"
    },
    {
      "anonymous": false,
      "inputs": [
        {
          "indexed": true,
          "internalType": "address",
          "name": "creator",
          "type": "address"
        },
        {
          "indexed": false,
          "internalType": "uint256",
          "name": "amount",
          "type": "uint256"
        }
      ],
      "name": "CreatorEarningsWithdrawn",
      "type": "event"
    },
    {
      "anonymous": false,
      "inputs": [
        {
          "indexed": false,
          "internalType": "uint256",
          "name": "amount",
          "type": "uint256"
        }
      ],
      "name": "ETHReserveAdded",
      "type": "event"
    },
    {
      "anonymous": false,
      "inputs": [
        {
          "indexed": true,
          "internalType": "string",
          "name": "courseId",
          "type": "string"
        },
        {
          "indexed": true,
          "internalType": "address",
          "name": "buyer",
          "type": "address"
        },
        {
          "indexed": false,
          "internalType": "uint256",
          "name": "feeAmount",
          "type": "uint256"
        }
      ],
      "name": "FeeCollected",
      "type": "event"
    },
    {
      "anonymous": false,
      "inputs": [
        {
          "indexed": true,
          "internalType": "address",
          "name": "previousOwner",
          "type": "address"
        },
        {
          "indexed": true,
          "internalType": "address",
          "name": "newOwner",
          "type": "address"
        }
      ],
      "name": "OwnershipTransferred",
      "type": "event"
    },
    {
      "anonymous": false,
      "inputs": [
        {
          "indexed": false,
          "internalType": "uint256",
          "name": "amount",
          "type": "uint256"
        }
      ],
      "name": "TokenReserveAdded",
      "type": "event"
    },
    {
      "anonymous": false,
      "inputs": [
        {
          "indexed": true,
          "internalType": "address",
          "name": "buyer",
          "type": "address"
        },
        {
          "indexed": false,
          "internalType": "uint256",
          "name": "ethAmount",
          "type": "uint256"
        },
        {
          "indexed": false,
          "internalType": "uint256",
          "name": "tokenAmount",
          "type": "uint256"
        }
      ],
      "name": "TokensPurchased",
      "type": "event"
    },
    {
      "anonymous": false,
      "inputs": [
        {
          "indexed": true,
          "internalType": "address",
          "name": "seller",
          "type": "address"
        },
        {
          "indexed": false,
          "internalType": "uint256",
          "name": "tokenAmount",
          "type": "uint256"
        },
        {
          "indexed": false,
          "internalType": "uint256",
          "name": "ethAmount",
          "type": "uint256"
        }
      ],
      "name": "TokensSold",
      "type": "event"
    },
    {
      "inputs": [],
      "name": "DEFAULT_TOKEN_RESERVE",
      "outputs": [
        {
          "internalType": "uint256",
          "name": "",
          "type": "uint256"
        }
      ],
      "stateMutability": "view",
      "type": "function"
    },
    {
      "inputs": [],
      "name": "FEE_RATE",
      "outputs": [
        {
          "internalType": "uint256",
          "name": "",
          "type": "uint256"
        }
      ],
      "stateMutability": "view",
      "type": "function"
    },
    {
      "inputs": [],
      "name": "addETHReserve",
      "outputs": [],
      "stateMutability": "payable",
      "type": "function"
    },
    {
      "inputs": [
        {
          "internalType": "uint256",
          "name": "amount",
          "type": "uint256"
        }
      ],
      "name": "addTokenReserve",
      "outputs": [],
      "stateMutability": "nonpayable",
      "type": "function"
    },
    {
      "inputs": [],
      "name": "buyTokens",
      "outputs": [],
      "stateMutability": "payable",
      "type": "function"
    },
    {
      "inputs": [
        {
          "internalType": "uint256",
          "name": "",
          "type": "uint256"
        }
      ],
      "name": "courseIds",
      "outputs": [
        {
          "internalType": "string",
          "name": "",
          "type": "string"
        }
      ],
      "stateMutability": "view",
      "type": "function"
    },
    {
      "inputs": [
        {
          "internalType": "string",
          "name": "",
          "type": "string"
        }
      ],
      "name": "courses",
      "outputs": [
        {
          "internalType": "string",
          "name": "courseId",
          "type": "string"
        },
        {
          "internalType": "string",
          "name": "title",
          "type": "string"
        },
        {
          "internalType": "string",
          "name": "description",
          "type": "string"
        },
        {
          "internalType": "uint256",
          "name": "price",
          "type": "uint256"
        },
        {
          "internalType": "address",
          "name": "creator",
          "type": "address"
        },
        {
          "internalType": "bool",
          "name": "isActive",
          "type": "bool"
        },
        {
          "internalType": "uint256",
          "name": "createdAt",
          "type": "uint256"
        }
      ],
      "stateMutability": "view",
      "type": "function"
    },
    {
      "inputs": [
        {
          "internalType": "string",
          "name": "courseId",
          "type": "string"
        },
        {
          "internalType": "string",
          "name": "title",
          "type": "string"
        },
        {
          "internalType": "string",
          "name": "description",
          "type": "string"
        },
        {
          "internalType": "uint256",
          "name": "price",
          "type": "uint256"
        }
      ],
      "name": "createCourse",
      "outputs": [],
      "stateMutability": "nonpayable",
      "type": "function"
    },
    {
      "inputs": [
        {
          "internalType": "address",
          "name": "",
          "type": "address"
        }
      ],
      "name": "creatorEarnings",
      "outputs": [
        {
          "internalType": "uint256",
          "name": "",
          "type": "uint256"
        }
      ],
      "stateMutability": "view",
      "type": "function"
    },
    {
      "inputs": [],
      "name": "getAllCourseIds",
      "outputs": [
        {
          "internalType": "string[]",
          "name": "",
          "type": "string[]"
        }
      ],
      "stateMutability": "view",
      "type": "function"
    },
    {
      "inputs": [],
      "name": "getContractBalances",
      "outputs": [
        {
          "internalType": "uint256",
          "name": "ethBalance",
          "type": "uint256"
        },
        {
          "internalType": "uint256",
          "name": "tokenBalance",
          "type": "uint256"
        }
      ],
      "stateMutability": "view",
      "type": "function"
    },
    {
      "inputs": [
        {
          "internalType": "string",
          "name": "courseId",
          "type": "string"
        }
      ],
      "name": "getCourse",
      "outputs": [
        {
          "internalType": "string",
          "name": "title",
          "type": "string"
        },
        {
          "internalType": "string",
          "name": "description",
          "type": "string"
        },
        {
          "internalType": "uint256",
          "name": "price",
          "type": "uint256"
        },
        {
          "internalType": "address",
          "name": "creator",
          "type": "address"
        },
        {
          "internalType": "bool",
          "name": "isActive",
          "type": "bool"
        },
        {
          "internalType": "uint256",
          "name": "createdAt",
          "type": "uint256"
        }
      ],
      "stateMutability": "view",
      "type": "function"
    },
    {
      "inputs": [
        {
          "internalType": "address",
          "name": "creator",
          "type": "address"
        }
      ],
      "name": "getCreatorEarnings",
      "outputs": [
        {
          "internalType": "uint256",
          "name": "",
          "type": "uint256"
        }
      ],
      "stateMutability": "view",
      "type": "function"
    },
    {
      "inputs": [],
      "name": "getExchangeReserves",
      "outputs": [
        {
          "internalType": "uint256",
          "name": "ethReserve",
          "type": "uint256"
        },
        {
          "internalType": "uint256",
          "name": "tokenReserve",
          "type": "uint256"
        }
      ],
      "stateMutability": "view",
      "type": "function"
    },
    {
      "inputs": [
        {
          "internalType": "address",
          "name": "user",
          "type": "address"
        }
      ],
      "name": "getUserPurchasedCourses",
      "outputs": [
        {
          "internalType": "string[]",
          "name": "",
          "type": "string[]"
        }
      ],
      "stateMutability": "view",
      "type": "function"
    },
    {
      "inputs": [
        {
          "internalType": "string",
          "name": "courseId",
          "type": "string"
        },
        {
          "internalType": "address",
          "name": "user",
          "type": "address"
        }
      ],
      "name": "hasUserPurchasedCourse",
      "outputs": [
        {
          "internalType": "bool",
          "name": "",
          "type": "bool"
        }
      ],
      "stateMutability": "view",
      "type": "function"
    },
    {
      "inputs": [
        {
          "internalType": "uint256",
          "name": "amount",
          "type": "uint256"
        }
      ],
      "name": "mintTokenReserve",
      "outputs": [],
      "stateMutability": "nonpayable",
      "type": "function"
    },
    {
      "inputs": [],
      "name": "owner",
      "outputs": [
        {
          "internalType": "address",
          "name": "",
          "type": "address"
        }
      ],
      "stateMutability": "view",
      "type": "function"
    },
    {
      "inputs": [
        {
          "internalType": "string",
          "name": "courseId",
          "type": "string"
        }
      ],
      "name": "purchaseCourse",
      "outputs": [],
      "stateMutability": "nonpayable",
      "type": "function"
    },
    {
      "inputs": [],
      "name": "renounceOwnership",
      "outputs": [],
      "stateMutability": "nonpayable",
      "type": "function"
    },
    {
      "inputs": [
        {
          "internalType": "uint256",
          "name": "tokenAmount",
          "type": "uint256"
        }
      ],
      "name": "sellTokens",
      "outputs": [],
      "stateMutability": "nonpayable",
      "type": "function"
    },
    {
      "inputs": [
        {
          "internalType": "string",
          "name": "courseId",
          "type": "string"
        }
      ],
      "name": "toggleCourseStatus",
      "outputs": [],
      "stateMutability": "nonpayable",
      "type": "function"
    },
    {
      "inputs": [
        {
          "internalType": "address",
          "name": "newOwner",
          "type": "address"
        }
      ],
      "name": "transferOwnership",
      "outputs": [],
      "stateMutability": "nonpayable",
      "type": "function"
    },
    {
      "inputs": [
        {
          "internalType": "string",
          "name": "courseId",
          "type": "string"
        },
        {
          "internalType": "string",
          "name": "title",
          "type": "string"
        },
        {
          "internalType": "string",
          "name": "description",
          "type": "string"
        },
        {
          "internalType": "uint256",
          "name": "price",
          "type": "uint256"
        }
      ],
      "name": "updateCourse",
      "outputs": [],
      "stateMutability": "nonpayable",
      "type": "function"
    },
    {
      "inputs": [
        {
          "internalType": "string",
          "name": "",
          "type": "string"
        },
        {
          "internalType": "address",
          "name": "",
          "type": "address"
        }
      ],
      "name": "userCoursePurchases",
      "outputs": [
        {
          "internalType": "bool",
          "name": "",
          "type": "bool"
        }
      ],
      "stateMutability": "view",
      "type": "function"
    },
    {
      "inputs": [],
      "name": "withdrawETH",
      "outputs": [],
      "stateMutability": "nonpayable",
      "type": "function"
    },
    {
      "inputs": [],
      "name": "withdrawFees",
      "outputs": [],
      "stateMutability": "nonpayable",
      "type": "function"
    },
    {
      "inputs": [],
      "name": "ydToken",
      "outputs": [
        {
          "internalType": "contract IERC20",
          "name": "",
          "type": "address"
        }
      ],
      "stateMutability": "view",
      "type": "function"
    },
    {
      "stateMutability": "payable",
      "type": "receive"
    }
  ],
  "bytecode": "0x60a03461011d57601f61229138819003918201601f19168301916001600160401b0383118484101761012157808492604094855283398101031261011d5761004681610135565b906001600160a01b039061005c90602001610135565b1690811561010a575f80546001600160a01b031981168417825560405193916001600160a01b03909116907f8be0079c531659141344cd1fd0a4f28419497f9722a3daafe3b4186f6b6457e09080a3600180556001600160a01b03166080525f6003819055600255612147908161014a82396080518181816101ee01528181610606015281816109ed01528181610a4901528181610b0c01528181610db20152818161110801526116a80152f35b631e4fbdf760e01b5f525f60045260245ffd5b5f80fd5b634e487b7160e01b5f52604160045260245ffd5b51906001600160a01b038216820361011d5756fe60806040526004361015610081575b3615610018575f80fd5b5f546001600160a01b0316331480610077575b61003157005b61003c341515612029565b61004834600254611fd6565b6002557f0a3fb7cc75ea0fb0934f586acddeb7bb41176b0ffffd2d396eed80b4f8e19d706020604051348152a1005b50303b151561002b565b5f5f3560e01c806317cb7d7c1461182e5780632d11c58a14611812578063476343ee1461167b578063494e23711461161d5780635899f583146114ae5780635d1c6dce146113cc57806367589b6f14610f475780636c11bcd314610d71578063715018a614610d1a57806371c195aa14610bf8578063804396af14610bc057806384e0077d14610aed5780638da5cb5b14610ac6578063aa429f0814610a78578063b9c5c02214610a33578063bdf871441461099a578063be54816d14610813578063c0c0d885146107c5578063c62c4e4d1461072f578063c92d7ced1461070a578063d0febe4c14610585578063da6181611461047b578063e086e5ec146103ed578063e1b9792f146103c8578063f2fde38b14610342578063fa3c30a814610309578063fbd8e3971461027b5763ffd2a7d3146101c0575061000e565b346102785780600319360112610278576040516370a0823160e01b81523060048201529047906020836024817f00000000000000000000000000000000000000000000000000000000000000006001600160a01b03165afa90811561026c5790610235575b6040809350519182526020820152f35b506020823d602011610264575b8161024f60209383611a88565b810103126102605760409151610225565b5f80fd5b3d9150610242565b604051903d90823e3d90fd5b80fd5b503461027857806003193601126102785760075461029881611f1e565b916102a66040519384611a88565b818352600781527fa66cc928b5edb82af9bd49922954155ab7b0942694bea4ce44661d9a8736c688602084015b8383106102ec57604051806102e88782611cab565b0390f35b6001602081926102fb85611bd1565b8152019201920191906102d3565b5034610278576020366003190112610278576020906040906001600160a01b03610331611c95565b168152600683522054604051908152f35b50346102785760203660031901126102785761035c611c95565b610364611fe3565b6001600160a01b031680156103b45781546001600160a01b03198116821783556001600160a01b03167f8be0079c531659141344cd1fd0a4f28419497f9722a3daafe3b4186f6b6457e08380a380f35b631e4fbdf760e01b82526004829052602482fd5b5034610278578060031936011261027857602060405169d3c21bcecceda10000008152f35b5034610278578060031936011261027857610406611fe3565b6104134760025490611ef9565b801561043657815482918291829182916001600160a01b031682f11561026c5780f35b60405162461bcd60e51b815260206004820152601960248201527f4e6f206578636573732045544820746f207769746864726177000000000000006044820152606490fd5b503461027857602036600319011261027857600435906001600160401b0382116102785761055e6020806104b23660048701611aa9565b604051928184925191829101835e81016004815203019020604051906104d782611a6d565b6104e081611bd1565b825260c06104f060018301611bd1565b916020840192835261050460028201611bd1565b9384604082015261056c600383015494856060840152600484015492600560ff60018060a01b0386169586608085015260a01c161515958660a084015201549586910152519560405197889760c0895260c0890190611c71565b908782036020890152611c71565b9360408601526060850152608084015260a08301520390f35b508060031936011261027857610599612009565b34156106c557610fa03402348104610fa0036106b15760035481811061066c57816105d2916105ca34600254611fd6565b600255611ef9565b60035560405163a9059cbb60e01b60208201523360248201526044808201839052815261063390610604606482611a88565b7f00000000000000000000000000000000000000000000000000000000000000006001600160a01b03166120b9565b6040519034825260208201527f8fafebcaf9d154343dad25669bfa277f4fbacd7ac6b0c4fed522580e040a0f3360403392a26001805580f35b60405162461bcd60e51b815260206004820152601a60248201527f496e73756666696369656e7420746f6b656e20726573657276650000000000006044820152606490fd5b634e487b7160e01b82526011600452602482fd5b60405162461bcd60e51b815260206004820152601b60248201527f4d7573742073656e642045544820746f2062757920746f6b656e7300000000006044820152606490fd5b5034610278578060031936011261027857604060025460035482519182526020820152f35b508060031936011261027857610743611fe3565b341580610790576107549015612029565b61076034600254611fd6565b6002557f0a3fb7cc75ea0fb0934f586acddeb7bb41176b0ffffd2d396eed80b4f8e19d706020604051348152a180f35b60405162461bcd60e51b815260206004820152600d60248201526c09aeae6e840e6cadcc8408aa89609b1b6044820152606490fd5b5034610278576020806107d736611d0a565b9290604051928184925191829101835e810160058152030190209060018060a01b03165f52602052602060ff60405f2054166040519015158152f35b50346102785761082236611afe565b9092916040519161085461084d855194602081818901978089835e8101600481520301902054611b99565b1515611f92565b604051600485518086845e820181815282900360200190912001546001600160a01b03163303610955576109496109267f13fd110add729234f66dfe0f1325e180ac2c9c7072d604c569f105d23d23269b9583600361093b976108b988511515611d4b565b6108c4831515611d8f565b6108e688600160405160208189518088835e8101600481520301902001611ddb565b6109088b600260405160208189518088835e8101600481520301902001611ddb565b6020604051809286518091835e810160048152030190200155611edd565b95604051948594606086526060860190611c71565b908482036020860152611c71565b9060408301520390a280f35b60405162461bcd60e51b815260206004820152601760248201527f4f6e6c792063726561746f722063616e207570646174650000000000000000006044820152606490fd5b5034610278576020366003190112610278577f3fce7062ebd0ba7774d7517eefef7d2d8bd6d0f599ff422a473566b44763562b60206004356109da611fe3565b6109e5811515612029565b610a1a8130337f00000000000000000000000000000000000000000000000000000000000000006001600160a01b0316612075565b610a2681600354611fd6565b600355604051908152a180f35b50346102785780600319360112610278576040517f00000000000000000000000000000000000000000000000000000000000000006001600160a01b03168152602090f35b503461027857602080610a8a36611d0a565b9350604051928184925191829101835e810160058152030190209060018060a01b03165f52602052602060ff60405f2054166040519015158152f35b5034610278578060031936011261027857546040516001600160a01b039091168152602090f35b503461026057602036600319011261026057600435610b0a611fe3565b7f00000000000000000000000000000000000000000000000000000000000000006001600160a01b0316803b15610260576040516340c10f1960e01b815230600482015260248101839052905f908290604490829084905af18015610bb557610b9f575b50602081610a267f3fce7062ebd0ba7774d7517eefef7d2d8bd6d0f599ff422a473566b44763562b93600354611fd6565b610bac9192505f90611a88565b5f906020610b6e565b6040513d5f823e3d90fd5b34610260576020366003190112610260576001600160a01b03610be1611c95565b165f526006602052602060405f2054604051908152f35b34610260576020366003190112610260576004356001600160401b03811161026057610c28903690600401611aa9565b60405190610c5061084d825193602081818601968088835e8101600481520301902054611b99565b604051600482518085845e820181815282900360200190912001546001600160a01b03163303610cd5576004610cd392602060ff83604051838188518088835e810184815203019020015460a01c161593604051928391518091835e81018481520301902001805460ff60a01b191691151560a01b60ff60a01b16919091179055565b005b60405162461bcd60e51b815260206004820152601e60248201527f4f6e6c792063726561746f722063616e20746f67676c652073746174757300006044820152606490fd5b34610260575f36600319011261026057610d32611fe3565b5f80546001600160a01b0319811682556001600160a01b03167f8be0079c531659141344cd1fd0a4f28419497f9722a3daafe3b4186f6b6457e08280a3005b3461026057602036600319011261026057600435610d8d612009565b8015610ef657610fa08106610e9957610fa081048060025410610e5457610ddf8230337f00000000000000000000000000000000000000000000000000000000000000006001600160a01b0316612075565b610deb81600254611ef9565b600255610dfa82600354611fd6565b600355805f8115610e4b575b5f80809381933390f115610bb55760405191825260208201527f2dcf9433d75db0d8b1c172641f85e319ffe4ad22e108a95d1847ceb906e5195d60403392a260018055005b506108fc610e06565b60405162461bcd60e51b815260206004820152601860248201527f496e73756666696369656e7420455448207265736572766500000000000000006044820152606490fd5b60405162461bcd60e51b815260206004820152602f60248201527f546f6b656e20616d6f756e74206d75737420626520646976697369626c65206260448201526e792065786368616e6765207261746560881b6064820152608490fd5b60405162461bcd60e51b815260206004820152602360248201527f546f6b656e20616d6f756e74206d75737420626520677265617465722074686160448201526206e20360ec1b6064820152608490fd5b34610260576020366003190112610260576004356001600160401b03811161026057610f77903690600401611aa9565b610f7f612009565b604051610fa661084d835192602081818701958087835e8101600481520301902054611b99565b60ff600460405160208186518087835e810184815203019020015460a01c16156113905760405160208184518085835e8101600581520301902060018060a01b0333165f5260205260ff60405f2054166113575760405182518083835e600490820181815282900360200190912001546001600160a01b031633146113125760405160208184518085835e810160048152030190209160405161104881611a6d565b61105184611bd1565b815261105f60018501611bd1565b602082015261107060028501611bd1565b60408201526003840154606082019181835260c0600560048801549760ff608085019960018060a01b0381168b5260a01c16151560a085015201549101526101f48102908082046101f414901517156112fe5761271090049361113560206110d9878551611ef9565b92516040516323b872dd60e01b81523360048201526001600160a01b03918216602482015260448101949094527f0000000000000000000000000000000000000000000000000000000000000000169291829081906064820190565b03815f865af1908115610bb5575f916112df575b50156112a1576040516323b872dd60e01b81523360048201523060248201526044810186905290602090829060649082905f905af1908115610bb5575f91611272575b501561123757611205926020604051809285518091835e8101600581520301902060018060a01b0333165f5260205260405f20600160ff19825416179055516111d482611edd565b6040519182527f716e6395af1503b6908e71b25e3456736b92afb151fd68f910dac3558c2a394d60203393a3611edd565b6040519182527f40f042ebd59f452bb11a7dc2986dbcacf0debb9179f46df78720d2203593078c60203393a360018055005b60405162461bcd60e51b8152602060048201526013602482015272119959481d1c985b9cd9995c8819985a5b1959606a1b6044820152606490fd5b611294915060203d60201161129a575b61128c8183611a88565b810190611f06565b8561118c565b503d611282565b60405162461bcd60e51b815260206004820152601660248201527510dc99585d1bdc881c185e5b595b9d0819985a5b195960521b6044820152606490fd5b6112f8915060203d60201161129a5761128c8183611a88565b86611149565b634e487b7160e01b5f52601160045260245ffd5b60405162461bcd60e51b815260206004820152601a60248201527f43616e6e6f742062757920796f7572206f776e20636f757273650000000000006044820152606490fd5b60405162461bcd60e51b8152602060048201526011602482015270105b1c9958591e481c1d5c98da185cd959607a1b6044820152606490fd5b60405162461bcd60e51b8152602060048201526014602482015273436f75727365206973206e6f742061637469766560601b6044820152606490fd5b34610260576020366003190112610260576004356001600160401b0381116102605760208061140261146a933690600401611aa9565b604051928184925191829101835e8101600481520301902061142381611bd1565b9061143060018201611bd1565b60ff61143e60028401611bd1565b926114866003820154946114786005600485015494015495604051998a9960e08b5260e08b0190611c71565b9089820360208b0152611c71565b908782036040890152611c71565b93606086015260018060a01b038116608086015260a01c16151560a084015260c08301520390f35b34610260576020366003190112610260576114c7611c95565b600754906114d482611f35565b915f916001600160a01b0316825b828110611537575050506114f581611f35565b915f5b82811061150d57604051806102e88682611cab565b8061151a60019284611f7e565b516115258287611f7e565b526115308186611f7e565b50016114f8565b61154081611b6d565b5060405190815f82549261155384611b99565b936001811690811561160357506001146115ca575b50602092506005815203019020825f5260205260ff60405f205416611590575b6001016114e2565b926115a361159d85611b6d565b50611bd1565b6115ad8287611f7e565b526115b88186611f7e565b505f1981146112fe5760010192611588565b9150505f528160205f205f905b8382106115eb575050602091810189611568565b602091925080600191548487015201910183916115d7565b60ff191684525060209380151502830191508a9050611568565b34610260576020366003190112610260576004356007548110156102605761164490611b6d565b611668576116546102e891611bd1565b604051918291602083526020830190611c71565b634e487b7160e01b5f525f60045260245ffd5b34610260575f36600319011261026057611693611fe3565b6040516370a0823160e01b81523060048201527f00000000000000000000000000000000000000000000000000000000000000006001600160a01b031690602081602481855afa8015610bb5575f906117de575b6116f5915060035490611ef9565b9081156117a3575f805460405163a9059cbb60e01b81526001600160a01b039091166004820152602481019390935260209183916044918391905af1908115610bb5575f91611784575b501561174757005b60405162461bcd60e51b8152602060048201526015602482015274119959481dda5d1a191c985dd85b0819985a5b1959605a1b6044820152606490fd5b61179d915060203d60201161129a5761128c8183611a88565b8161173f565b60405162461bcd60e51b81526020600482015260136024820152724e6f206665657320746f20776974686472617760681b6044820152606490fd5b506020813d60201161180a575b816117f860209383611a88565b81010312610260576116f590516116e7565b3d91506117eb565b34610260575f3660031901126102605760206040516101f48152f35b346102605761183c36611afe565b9290815115611a285761185183511515611d4b565b61185c841515611d8f565b604051611880835191602081818701948086835e8101600481520301902054611b99565b6119e35782611943600592604051809561189982611a6d565b84825261190760208301918a8352604084019081526118fd60608501938d85526118f36080870197338952602060c060a08a019960018b52019b428d52604051928391518091835e810160048152030190209b518c611ddb565b5160018b01611ddb565b5160028901611ddb565b5160038701559051600486018054925160ff60a01b90151560a01b166001600160a01b039092166001600160a81b031990931692909217179055565b51910155600754680100000000000000008110156119cf5780600161196b9201600755611b6d565b929092611668576119a9826119a46119be947f0b8df96ea7f5e06023265c1513d6e57e3fa43e8306b430aa5798c699202506df96611ddb565b611edd565b93604051928392606084526060840190611c71565b9060208301523360408301520390a2005b634e487b7160e01b5f52604160045260245ffd5b60405162461bcd60e51b815260206004820152601860248201527f436f7572736520494420616c72656164792065786973747300000000000000006044820152606490fd5b60405162461bcd60e51b815260206004820152601960248201527f436f757273652049442063616e6e6f7420626520656d707479000000000000006044820152606490fd5b60e081019081106001600160401b038211176119cf57604052565b90601f801991011681019081106001600160401b038211176119cf57604052565b81601f82011215610260578035906001600160401b0382116119cf5760405192611add601f8401601f191660200185611a88565b8284526020838301011161026057815f926020809301838601378301015290565b6080600319820112610260576004356001600160401b0381116102605781611b2891600401611aa9565b916024356001600160401b0381116102605782611b4791600401611aa9565b91604435906001600160401b03821161026057611b6691600401611aa9565b9060643590565b600754811015611b855760075f5260205f2001905f90565b634e487b7160e01b5f52603260045260245ffd5b90600182811c92168015611bc7575b6020831014611bb357565b634e487b7160e01b5f52602260045260245ffd5b91607f1691611ba8565b9060405191825f825492611be484611b99565b8084529360018116908115611c4f5750600114611c0b575b50611c0992500383611a88565b565b90505f9291925260205f20905f915b818310611c33575050906020611c09928201015f611bfc565b6020919350806001915483858901015201910190918492611c1a565b905060209250611c0994915060ff191682840152151560051b8201015f611bfc565b805180835260209291819084018484015e5f828201840152601f01601f1916010190565b600435906001600160a01b038216820361026057565b602081016020825282518091526040820191602060408360051b8301019401925f915b838310611cdd57505050505090565b9091929394602080611cfb600193603f198682030187528951611c71565b97019301930191939290611cce565b604060031982011261026057600435906001600160401b03821161026057611d3491600401611aa9565b906024356001600160a01b03811681036102605790565b15611d5257565b60405162461bcd60e51b81526020600482015260156024820152745469746c652063616e6e6f7420626520656d70747960581b6044820152606490fd5b15611d9657565b60405162461bcd60e51b815260206004820152601c60248201527f5072696365206d7573742062652067726561746572207468616e2030000000006044820152606490fd5b91909182516001600160401b0381116119cf57611df88254611b99565b601f8111611e98575b506020601f8211600114611e3a57819293945f92611e2f575b50508160011b915f199060031b1c1916179055565b015190505f80611e1a565b601f19821690835f52805f20915f5b818110611e8057509583600195969710611e68575b505050811b019055565b01515f1960f88460031b161c191690555f8080611e5e565b9192602060018192868b015181550194019201611e49565b825f5260205f20601f830160051c81019160208410611ed3575b601f0160051c01905b818110611ec85750611e01565b5f8155600101611ebb565b9091508190611eb2565b602090604051918183925191829101835e81015f815203902090565b919082039182116112fe57565b90816020910312610260575180151581036102605790565b6001600160401b0381116119cf5760051b60200190565b90611f3f82611f1e565b611f4c6040519182611a88565b8281528092611f5d601f1991611f1e565b01905f5b828110611f6d57505050565b806060602080938501015201611f61565b8051821015611b855760209160051b010190565b15611f9957565b60405162461bcd60e51b815260206004820152601560248201527410dbdd5c9cd948191bd95cc81b9bdd08195e1a5cdd605a1b6044820152606490fd5b919082018092116112fe57565b5f546001600160a01b03163303611ff657565b63118cdaa760e01b5f523360045260245ffd5b60026001541461201a576002600155565b633ee5aeb560e01b5f5260045ffd5b1561203057565b60405162461bcd60e51b815260206004820152601d60248201527f416d6f756e74206d7573742062652067726561746572207468616e20300000006044820152606490fd5b6040516323b872dd60e01b60208201526001600160a01b039283166024820152929091166044830152606480830193909352918152611c09916120b9608483611a88565b905f602091828151910182855af115610bb5575f513d61210857506001600160a01b0381163b155b6120e85750565b635274afe760e01b5f9081526001600160a01b0391909116600452602490fd5b600114156120e156fea264697066735822122043153b29ecde53339f8db03a24da68ee2ee81821a1e0f360b8146948fd067a1264736f6c634300081c0033",
  "linkReferences": {},
  "deployedLinkReferences": {},
  "immutableReferences": {
    "1586": [
      {
        "length": 32,
        "start": 494
      },
      {
        "length": 32,
        "start": 1542
      },
      {
        "length": 32,
        "start": 2541
      },
      {
        "length": 32,
        "start": 2633
      },
      {
        "length": 32,
        "start": 2828
      },
      {
        "length": 32,
        "start": 3506
      },
      {
        "length": 32,
        "start": 4360
      },
      {
        "length": 32,
        "start": 5800
      }
    ]
  },
  "inputSourceName": "project/contracts/CourseManager.sol",
  "buildInfoId": "solc-0_8_28-7ecf1e4df75c323ad6d4cbdc5a930aeefeb5a1ad"
}