{
  "_format": "hh3-artifact-1",
  "contractName": "MockUniswapV3Router",
  "sourceName": "contracts/mocks/MockContracts.sol",
  "abi": [
    {
      "inputs": [
        {
          "internalType": "address",
          "name": "_weth",
          "type": "address"
        }
      ],
      "stateMutability": "nonpayable",
      "type": "constructor"
    },
    {
      "inputs": [],
      "name": "EXCHANGE_RATE",
      "outputs": [
        {
          "internalType": "uint256",
          "name": "",
          "type": "uint256"
        }
      ],
      "stateMutability": "view",
      "type": "function"
    },
    {
      "inputs": [],
      "name": "WETH",
      "outputs": [
        {
          "internalType": "address",
          "name": "",
          "type": "address"
        }
      ],
      "stateMutability": "view",
      "type": "function"
    },
    {
      "inputs": [
        {
          "components": [
            {
              "internalType": "address",
              "name": "tokenIn",
              "type": "address"
            },
            {
              "internalType": "address",
              "name": "tokenOut",
              "type": "address"
            },
            {
              "internalType": "uint24",
              "name": "fee",
              "type": "uint24"
            },
            {
              "internalType": "address",
              "name": "recipient",
              "type": "address"
            },
            {
              "internalType": "uint256",
              "name": "deadline",
              "type": "uint256"
            },
            {
              "internalType": "uint256",
              "name": "amountIn",
              "type": "uint256"
            },
            {
              "internalType": "uint256",
              "name": "amountOutMinimum",
              "type": "uint256"
            },
            {
              "internalType": "uint160",
              "name": "sqrtPriceLimitX96",
              "type": "uint160"
            }
          ],
          "internalType": "struct MockUniswapV3Router.ExactInputSingleParams",
          "name": "params",
          "type": "tuple"
        }
      ],
      "name": "exactInputSingle",
      "outputs": [
        {
          "internalType": "uint256",
          "name": "amountOut",
          "type": "uint256"
        }
      ],
      "stateMutability": "payable",
      "type": "function"
    }
  ],
  "bytecode": "0x60a034606b57601f61035f38819003918201601f19168301916001600160401b03831184841017606f57808492602094604052833981010312606b57516001600160a01b0381168103606b576080526040516102db908161008482396080518181816054015260b40152f35b5f80fd5b634e487b7160e01b5f52604160045260245ffdfe6080806040526004361015610012575f80fd5b5f905f3560e01c90816314a8bd0d1461028b57508063414bf389146100865763ad5c46481461003f575f80fd5b346100835780600319360112610083576040517f00000000000000000000000000000000000000000000000000000000000000006001600160a01b03168152602090f35b80fd5b6101003660031901126101ae5760a4353403610250576004356001600160a01b038116908181036101ae57507f00000000000000000000000000000000000000000000000000000000000000006001600160a01b03160361020b57610bb83402348104610bb814341517156101f75764e8d4a51000900460c43581106101b2576024356001600160a01b03811691908281036101ae57506064356001600160a01b038116908181036101ae5750823b156101ae575f926044849260405195869384926340c10f1960e01b845260048401528660248401525af180156101a357610175575b602090604051908152f35b67ffffffffffffffff821161018f5760209160405261016a565b634e487b7160e01b5f52604160045260245ffd5b6040513d5f823e3d90fd5b5f80fd5b60405162461bcd60e51b815260206004820152601a60248201527f496e73756666696369656e74206f757470757420616d6f756e740000000000006044820152606490fd5b634e487b7160e01b5f52601160045260245ffd5b60405162461bcd60e51b815260206004820152601960248201527f4f6e6c79205745544820696e70757420737570706f72746564000000000000006044820152606490fd5b60405162461bcd60e51b815260206004820152601360248201527208aa89040c2dadeeadce840dad2e6dac2e8c6d606b1b6044820152606490fd5b346101ae575f3660031901126101ae5780610bb860209252f3fea2646970667358221220bb585bf8c51b06efd3c8307fe623a4d5c6df0f3f923f090e86f923d7774f876064736f6c634300081c0033",
  "linkReferences": {},
  "deployedLinkReferences": {},
  "immutableReferences": {
    "1052": [
      {
        "length": 32,
        "start": 84
      },
      {
        "length": 32,
        "start": 180
      }
    ]
  },
  "inputSourceName": "project/contracts/mocks/MockContracts.sol",
  "buildInfoId": "solc-0_8_28-902b97e54a9831a1a09d5fd485d7386ff306c533"
}