{
  "_format": "hh3-artifact-1",
  "contractName": "StakingSystem",
  "sourceName": "contracts/StakingSystem.sol",
  "abi": [
    {
      "inputs": [
        {
          "internalType": "address",
          "name": "_ydToken",
          "type": "address"
        },
        {
          "internalType": "address",
          "name": "_usdtToken",
          "type": "address"
        },
        {
          "internalType": "address",
          "name": "_wethToken",
          "type": "address"
        },
        {
          "internalType": "address",
          "name": "_uniswapV3Router",
          "type": "address"
        },
        {
          "internalType": "address",
          "name": "_uniswapV3Quoter",
          "type": "address"
        },
        {
          "internalType": "address",
          "name": "_aavePoolProvider",
          "type": "address"
        },
        {
          "internalType": "address",
          "name": "_aaveDataProvider",
          "type": "address"
        },
        {
          "internalType": "address",
          "name": "_initialOwner",
          "type": "address"
        }
      ],
      "stateMutability": "nonpayable",
      "type": "constructor"
    },
    {
      "inputs": [],
      "name": "EnforcedPause",
      "type": "error"
    },
    {
      "inputs": [],
      "name": "ExpectedPause",
      "type": "error"
    },
    {
      "inputs": [
        {
          "internalType": "address",
          "name": "owner",
          "type": "address"
        }
      ],
      "name": "OwnableInvalidOwner",
      "type": "error"
    },
    {
      "inputs": [
        {
          "internalType": "address",
          "name": "account",
          "type": "address"
        }
      ],
      "name": "OwnableUnauthorizedAccount",
      "type": "error"
    },
    {
      "inputs": [],
      "name": "ReentrancyGuardReentrantCall",
      "type": "error"
    },
    {
      "inputs": [
        {
          "internalType": "address",
          "name": "token",
          "type": "address"
        }
      ],
      "name": "SafeERC20FailedOperation",
      "type": "error"
    },
    {
      "anonymous": false,
      "inputs": [
        {
          "indexed": false,
          "internalType": "uint256",
          "name": "amount",
          "type": "uint256"
        }
      ],
      "name": "ETHReserveAdded",
      "type": "event"
    },
    {
      "anonymous": false,
      "inputs": [
        {
          "indexed": true,
          "internalType": "address",
          "name": "previousOwner",
          "type": "address"
        },
        {
          "indexed": true,
          "internalType": "address",
          "name": "newOwner",
          "type": "address"
        }
      ],
      "name": "OwnershipTransferred",
      "type": "event"
    },
    {
      "anonymous": false,
      "inputs": [
        {
          "indexed": false,
          "internalType": "address",
          "name": "account",
          "type": "address"
        }
      ],
      "name": "Paused",
      "type": "event"
    },
    {
      "anonymous": false,
      "inputs": [
        {
          "indexed": false,
          "internalType": "uint24",
          "name": "newFee",
          "type": "uint24"
        }
      ],
      "name": "PoolFeeUpdated",
      "type": "event"
    },
    {
      "anonymous": false,
      "inputs": [
        {
          "indexed": false,
          "internalType": "uint256",
          "name": "newIndex",
          "type": "uint256"
        }
      ],
      "name": "RewardIndexUpdated",
      "type": "event"
    },
    {
      "anonymous": false,
      "inputs": [
        {
          "indexed": true,
          "internalType": "address",
          "name": "user",
          "type": "address"
        },
        {
          "indexed": false,
          "internalType": "uint256",
          "name": "rewardAmount",
          "type": "uint256"
        }
      ],
      "name": "RewardsClaimed",
      "type": "event"
    },
    {
      "anonymous": false,
      "inputs": [
        {
          "indexed": false,
          "internalType": "uint256",
          "name": "newTolerance",
          "type": "uint256"
        }
      ],
      "name": "SlippageToleranceUpdated",
      "type": "event"
    },
    {
      "anonymous": false,
      "inputs": [
        {
          "indexed": true,
          "internalType": "address",
          "name": "user",
          "type": "address"
        },
        {
          "indexed": false,
          "internalType": "uint256",
          "name": "ydAmount",
          "type": "uint256"
        },
        {
          "indexed": false,
          "internalType": "uint256",
          "name": "usdtAmount",
          "type": "uint256"
        },
        {
          "indexed": false,
          "internalType": "uint256",
          "name": "aTokenAmount",
          "type": "uint256"
        }
      ],
      "name": "Staked",
      "type": "event"
    },
    {
      "anonymous": false,
      "inputs": [
        {
          "indexed": false,
          "internalType": "address",
          "name": "account",
          "type": "address"
        }
      ],
      "name": "Unpaused",
      "type": "event"
    },
    {
      "anonymous": false,
      "inputs": [
        {
          "indexed": true,
          "internalType": "address",
          "name": "user",
          "type": "address"
        },
        {
          "indexed": false,
          "internalType": "uint256",
          "name": "usdtAmount",
          "type": "uint256"
        },
        {
          "indexed": false,
          "internalType": "uint256",
          "name": "aTokenBurned",
          "type": "uint256"
        }
      ],
      "name": "Withdrawn",
      "type": "event"
    },
    {
      "anonymous": false,
      "inputs": [
        {
          "indexed": true,
          "internalType": "address",
          "name": "owner",
          "type": "address"
        },
        {
          "indexed": false,
          "internalType": "uint256",
          "name": "amount",
          "type": "uint256"
        }
      ],
      "name": "YDTokensWithdrawn",
      "type": "event"
    },
    {
      "inputs": [],
      "name": "AAVE_DATA_PROVIDER",
      "outputs": [
        {
          "internalType": "address",
          "name": "",
          "type": "address"
        }
      ],
      "stateMutability": "view",
      "type": "function"
    },
    {
      "inputs": [],
      "name": "AAVE_POOL_PROVIDER",
      "outputs": [
        {
          "internalType": "address",
          "name": "",
          "type": "address"
        }
      ],
      "stateMutability": "view",
      "type": "function"
    },
    {
      "inputs": [],
      "name": "MAX_SLIPPAGE",
      "outputs": [
        {
          "internalType": "uint256",
          "name": "",
          "type": "uint256"
        }
      ],
      "stateMutability": "view",
      "type": "function"
    },
    {
      "inputs": [],
      "name": "POOL_FEE_HIGH",
      "outputs": [
        {
          "internalType": "uint24",
          "name": "",
          "type": "uint24"
        }
      ],
      "stateMutability": "view",
      "type": "function"
    },
    {
      "inputs": [],
      "name": "POOL_FEE_LOW",
      "outputs": [
        {
          "internalType": "uint24",
          "name": "",
          "type": "uint24"
        }
      ],
      "stateMutability": "view",
      "type": "function"
    },
    {
      "inputs": [],
      "name": "POOL_FEE_MEDIUM",
      "outputs": [
        {
          "internalType": "uint24",
          "name": "",
          "type": "uint24"
        }
      ],
      "stateMutability": "view",
      "type": "function"
    },
    {
      "inputs": [],
      "name": "UNISWAP_V3_QUOTER",
      "outputs": [
        {
          "internalType": "address",
          "name": "",
          "type": "address"
        }
      ],
      "stateMutability": "view",
      "type": "function"
    },
    {
      "inputs": [],
      "name": "UNISWAP_V3_ROUTER",
      "outputs": [
        {
          "internalType": "address",
          "name": "",
          "type": "address"
        }
      ],
      "stateMutability": "view",
      "type": "function"
    },
    {
      "inputs": [],
      "name": "USDT_TOKEN",
      "outputs": [
        {
          "internalType": "address",
          "name": "",
          "type": "address"
        }
      ],
      "stateMutability": "view",
      "type": "function"
    },
    {
      "inputs": [],
      "name": "WETH_TOKEN",
      "outputs": [
        {
          "internalType": "address",
          "name": "",
          "type": "address"
        }
      ],
      "stateMutability": "view",
      "type": "function"
    },
    {
      "inputs": [],
      "name": "YD_TOKEN",
      "outputs": [
        {
          "internalType": "address",
          "name": "",
          "type": "address"
        }
      ],
      "stateMutability": "view",
      "type": "function"
    },
    {
      "inputs": [],
      "name": "aUsdtToken",
      "outputs": [
        {
          "internalType": "address",
          "name": "",
          "type": "address"
        }
      ],
      "stateMutability": "view",
      "type": "function"
    },
    {
      "inputs": [],
      "name": "aavePool",
      "outputs": [
        {
          "internalType": "address",
          "name": "",
          "type": "address"
        }
      ],
      "stateMutability": "view",
      "type": "function"
    },
    {
      "inputs": [],
      "name": "addETHReserve",
      "outputs": [],
      "stateMutability": "payable",
      "type": "function"
    },
    {
      "inputs": [
        {
          "internalType": "uint256",
          "name": "amount",
          "type": "uint256"
        }
      ],
      "name": "addYDTokenReserve",
      "outputs": [],
      "stateMutability": "nonpayable",
      "type": "function"
    },
    {
      "inputs": [],
      "name": "claimRewards",
      "outputs": [],
      "stateMutability": "nonpayable",
      "type": "function"
    },
    {
      "inputs": [
        {
          "internalType": "address",
          "name": "token",
          "type": "address"
        },
        {
          "internalType": "uint256",
          "name": "amount",
          "type": "uint256"
        }
      ],
      "name": "emergencyWithdraw",
      "outputs": [],
      "stateMutability": "nonpayable",
      "type": "function"
    },
    {
      "inputs": [],
      "name": "getSystemStats",
      "outputs": [
        {
          "internalType": "uint256",
          "name": "_totalStaked",
          "type": "uint256"
        },
        {
          "internalType": "uint256",
          "name": "_totalRewardsPaid",
          "type": "uint256"
        },
        {
          "internalType": "uint256",
          "name": "_totalATokens",
          "type": "uint256"
        },
        {
          "internalType": "uint256",
          "name": "_availableRewards",
          "type": "uint256"
        },
        {
          "internalType": "uint256",
          "name": "_ethReserve",
          "type": "uint256"
        },
        {
          "internalType": "uint256",
          "name": "_ydBalance",
          "type": "uint256"
        },
        {
          "internalType": "uint256",
          "name": "_currentAPY",
          "type": "uint256"
        }
      ],
      "stateMutability": "view",
      "type": "function"
    },
    {
      "inputs": [
        {
          "internalType": "address",
          "name": "user",
          "type": "address"
        }
      ],
      "name": "getUserInfo",
      "outputs": [
        {
          "internalType": "uint256",
          "name": "stakedAmount",
          "type": "uint256"
        },
        {
          "internalType": "uint256",
          "name": "aTokenBalance",
          "type": "uint256"
        },
        {
          "internalType": "uint256",
          "name": "lastStakeTime",
          "type": "uint256"
        },
        {
          "internalType": "uint256",
          "name": "totalRewardsClaimed",
          "type": "uint256"
        },
        {
          "internalType": "uint256",
          "name": "availableRewards",
          "type": "uint256"
        },
        {
          "internalType": "uint256",
          "name": "currentValue",
          "type": "uint256"
        }
      ],
      "stateMutability": "view",
      "type": "function"
    },
    {
      "inputs": [],
      "name": "owner",
      "outputs": [
        {
          "internalType": "address",
          "name": "",
          "type": "address"
        }
      ],
      "stateMutability": "view",
      "type": "function"
    },
    {
      "inputs": [],
      "name": "pause",
      "outputs": [],
      "stateMutability": "nonpayable",
      "type": "function"
    },
    {
      "inputs": [],
      "name": "paused",
      "outputs": [
        {
          "internalType": "bool",
          "name": "",
          "type": "bool"
        }
      ],
      "stateMutability": "view",
      "type": "function"
    },
    {
      "inputs": [],
      "name": "poolFee",
      "outputs": [
        {
          "internalType": "uint24",
          "name": "",
          "type": "uint24"
        }
      ],
      "stateMutability": "view",
      "type": "function"
    },
    {
      "inputs": [],
      "name": "renounceOwnership",
      "outputs": [],
      "stateMutability": "nonpayable",
      "type": "function"
    },
    {
      "inputs": [],
      "name": "rewardIndex",
      "outputs": [
        {
          "internalType": "uint256",
          "name": "",
          "type": "uint256"
        }
      ],
      "stateMutability": "view",
      "type": "function"
    },
    {
      "inputs": [
        {
          "internalType": "uint24",
          "name": "_poolFee",
          "type": "uint24"
        }
      ],
      "name": "setPoolFee",
      "outputs": [],
      "stateMutability": "nonpayable",
      "type": "function"
    },
    {
      "inputs": [
        {
          "internalType": "uint256",
          "name": "_slippageTolerance",
          "type": "uint256"
        }
      ],
      "name": "setSlippageTolerance",
      "outputs": [],
      "stateMutability": "nonpayable",
      "type": "function"
    },
    {
      "inputs": [],
      "name": "slippageTolerance",
      "outputs": [
        {
          "internalType": "uint256",
          "name": "",
          "type": "uint256"
        }
      ],
      "stateMutability": "view",
      "type": "function"
    },
    {
      "inputs": [
        {
          "internalType": "uint256",
          "name": "ydAmount",
          "type": "uint256"
        }
      ],
      "name": "stake",
      "outputs": [],
      "stateMutability": "nonpayable",
      "type": "function"
    },
    {
      "inputs": [],
      "name": "totalRewardsPaid",
      "outputs": [
        {
          "internalType": "uint256",
          "name": "",
          "type": "uint256"
        }
      ],
      "stateMutability": "view",
      "type": "function"
    },
    {
      "inputs": [],
      "name": "totalStaked",
      "outputs": [
        {
          "internalType": "uint256",
          "name": "",
          "type": "uint256"
        }
      ],
      "stateMutability": "view",
      "type": "function"
    },
    {
      "inputs": [
        {
          "internalType": "address",
          "name": "newOwner",
          "type": "address"
        }
      ],
      "name": "transferOwnership",
      "outputs": [],
      "stateMutability": "nonpayable",
      "type": "function"
    },
    {
      "inputs": [],
      "name": "unpause",
      "outputs": [],
      "stateMutability": "nonpayable",
      "type": "function"
    },
    {
      "inputs": [
        {
          "internalType": "address",
          "name": "",
          "type": "address"
        }
      ],
      "name": "userInfo",
      "outputs": [
        {
          "internalType": "uint256",
          "name": "stakedAmount",
          "type": "uint256"
        },
        {
          "internalType": "uint256",
          "name": "aTokenBalance",
          "type": "uint256"
        },
        {
          "internalType": "uint256",
          "name": "lastStakeTime",
          "type": "uint256"
        },
        {
          "internalType": "uint256",
          "name": "totalRewardsClaimed",
          "type": "uint256"
        },
        {
          "internalType": "uint256",
          "name": "lastRewardIndex",
          "type": "uint256"
        }
      ],
      "stateMutability": "view",
      "type": "function"
    },
    {
      "inputs": [
        {
          "internalType": "uint256",
          "name": "usdtAmount",
          "type": "uint256"
        }
      ],
      "name": "withdraw",
      "outputs": [],
      "stateMutability": "nonpayable",
      "type": "function"
    },
    {
      "stateMutability": "payable",
      "type": "receive"
    }
  ],
  "bytecode": "0x610160806040523461035357610100816121cf803803809161002182856105c8565b83398101031261035357610034816105ff565b610040602083016105ff565b9161004d604082016105ff565b9061005a606082016105ff565b93610067608083016105ff565b9361007460a084016105ff565b9461008160c085016105ff565b936001600160a01b03906100979060e0016105ff565b169384156105b5575f80546001600160a01b031981168717825560405196916001600160a01b03909116907f8be0079c531659141344cd1fd0a4f28419497f9722a3daafe3b4186f6b6457e09080a3600180556006805462ffffff60a01b19811661017760a31b1790915561012c600b55946001600160a01b0384161561057357506001600160a01b03841696871561052e576001600160a01b038716156104e9576001600160a01b0389161561049a576001600160a01b0383161561044b576001600160a01b0381169283156103fb576001600160a01b0383169788156103ab5760049660209660805260a05260c0528960e0526101005261012052610140526040519283809263026b1d5f60e01b82525afa90811561035f575f9161036a575b50600580546001600160a01b0319166001600160a01b039092169190911790556040516334924edb60e21b81526004810184905291606090839060249082905afa91821561035f575f926102fb575b506001600160b81b0319166001600160a01b039091161761017760a31b17600655610249916102379082610613565b6005546001600160a01b031690610613565b670de0b6b3a7640000600a555f6004555f600355604051611aa99081610726823960805181818161035c01528181610567015281816106a4015261075e015260a0518181816103ac0152818161081101528181610e83015281816112dc015261142f015260c0518181816107e10152611238015260e051818181610980015261118e015261010051818181610642015261085901526101205181610d200152610140518181816103df0152610e3f0152f35b9150926060823d606011610357575b81610317606093836105c8565b810103126103535761024993826103496040610335610237966105ff565b92610342602082016105ff565b50016105ff565b5092509093610208565b5f80fd5b3d915061030a565b6040513d5f823e3d90fd5b90506020813d6020116103a3575b81610385602093836105c8565b810103126103535760249261039b6060926105ff565b9150926101b9565b3d9150610378565b60405162461bcd60e51b815260206004820152602260248201527f496e76616c6964204141564520646174612070726f7669646572206164647265604482015261737360f01b6064820152608490fd5b60405162461bcd60e51b815260206004820152602260248201527f496e76616c6964204141564520706f6f6c2070726f7669646572206164647265604482015261737360f01b6064820152608490fd5b60405162461bcd60e51b815260206004820152602160248201527f496e76616c696420556e69737761702056332071756f746572206164647265736044820152607360f81b6064820152608490fd5b60405162461bcd60e51b815260206004820152602160248201527f496e76616c696420556e697377617020563320726f75746572206164647265736044820152607360f81b6064820152608490fd5b60405162461bcd60e51b815260206004820152601a60248201527f496e76616c6964205745544820746f6b656e20616464726573730000000000006044820152606490fd5b60405162461bcd60e51b815260206004820152601a60248201527f496e76616c6964205553445420746f6b656e20616464726573730000000000006044820152606490fd5b62461bcd60e51b815260206004820152601860248201527f496e76616c696420594420746f6b656e206164647265737300000000000000006044820152606490fd5b631e4fbdf760e01b5f525f60045260245ffd5b601f909101601f19168101906001600160401b038211908210176105eb57604052565b634e487b7160e01b5f52604160045260245ffd5b51906001600160a01b038216820361035357565b6040519060205f8184019463095ea7b360e01b865260018060a01b031694856024860152811960448601526044855261064d6064866105c8565b84519082855af15f513d826106a8575b50501561066957505050565b6106a16106a6936040519063095ea7b360e01b602083015260248201525f60448201526044815261069b6064826105c8565b826106cd565b6106cd565b565b9091506106c557506001600160a01b0381163b15155b5f8061065d565b6001146106be565b905f602091828151910182855af11561035f575f513d61071c57506001600160a01b0381163b155b6106fc5750565b635274afe760e01b5f9081526001600160a01b0391909116600452602490fd5b600114156106f556fe6080806040526004361015610073575b50361561001a575f80fd5b5f546001600160a01b0316331461002d57005b6100383415156116a9565b61004434600354611755565b6003557f0a3fb7cc75ea0fb0934f586acddeb7bb41176b0ffffd2d396eed80b4f8e19d706020604051348152a1005b5f905f3560e01c908163089fe6aa1461167157508063117da1ee146115e2578063126865b2146115c65780631959a002146115625780632e1a7d4d146113af578063372500ab1461126757806337d277d4146112235780633f4ba83a146111bd57806341c64a2f146111795780635c975abb146111575780636386c1c714611005578063715018a614610fae57806373dd250c14610ecf57806374958e3514610eb257806377b330c914610e6e5780637e0bce1014610e2a578063817b1cd214610e0d5780638456cb5914610db45780638da5cb5b14610d8d57806395ccea6714610d4f5780639b02021d14610d0b578063a03e4bc314610ce3578063a694fc3a14610725578063b9485f3a146106fc578063bf50832d146106df578063c3ce785014610671578063c5c8fb611461062c578063c62c4e4d14610596578063c6b6085514610551578063d03153aa14610533578063d1ce59a7146102dc578063e9ee2fa9146102be578063eb62c4e3146102a1578063f2fde38b1461021b5763f97595180361000f573461021857806003193601126102185760206040516103e88152f35b80fd5b503461021857602036600319011261021857610235611693565b61023d611762565b6001600160a01b0316801561028d5781546001600160a01b03198116821783556001600160a01b03167f8be0079c531659141344cd1fd0a4f28419497f9722a3daafe3b4186f6b6457e08380a380f35b631e4fbdf760e01b82526004829052602482fd5b503461021857806003193601126102185760206040516127108152f35b50346102185780600319360112610218576020600a54604051908152f35b50346102185780600319360112610218576006546040516370a0823160e01b815230600482015290602090829060249082906001600160a01b03165afa9081156105285782916104f6575b5060085490818111156104ef5761033e8282611748565b905b6040516370a0823160e01b8152306004820152916020836024817f00000000000000000000000000000000000000000000000000000000000000006001600160a01b03165afa9283156104e45785936104ac575b506040516335ea6a7560e01b81526001600160a01b037f00000000000000000000000000000000000000000000000000000000000000008116600483015261018090829060249082907f0000000000000000000000000000000000000000000000000000000000000000165afa9586156104a0578096610450575b60e08669152d02c7e14af6800000898888886009549160035492604051978852602088015260408701526060860152608085015260a08401520460c0820152f35b90919550610180823d8211610498575b8161046e6101809383611726565b810103126102185761016060a083015192015164ffffffffff8116036102185750938160e061040f565b3d9150610460565b604051903d90823e3d90fd5b9092506020813d6020116104dc575b816104c860209383611726565b810103126104d85751915f610394565b5f80fd5b3d91506104bb565b6040513d87823e3d90fd5b8290610340565b90506020813d602011610520575b8161051160209383611726565b810103126104d857515f610327565b3d9150610504565b6040513d84823e3d90fd5b50346102185780600319360112610218576020600b54604051908152f35b50346102185780600319360112610218576040517f00000000000000000000000000000000000000000000000000000000000000006001600160a01b03168152602090f35b5080600319360112610218576105aa611762565b3415806105f7576105bb90156116a9565b6105c734600354611755565b6003557f0a3fb7cc75ea0fb0934f586acddeb7bb41176b0ffffd2d396eed80b4f8e19d706020604051348152a180f35b60405162461bcd60e51b815260206004820152600d60248201526c09aeae6e840e6cadcc8408aa89609b1b6044820152606490fd5b50346102185780600319360112610218576040517f00000000000000000000000000000000000000000000000000000000000000006001600160a01b03168152602090f35b5034610218576020366003190112610218576106d9600435610691611762565b61069c8115156116a9565b6106d18130337f00000000000000000000000000000000000000000000000000000000000000006001600160a01b03166119d7565b600454611755565b60045580f35b503461021857806003193601126102185760206040516101f48152f35b50346102185780600319360112610218576006546040516001600160a01b039091168152602090f35b50346104d85760203660031901126104d857600435610742611788565b61074a6119bc565b801561075681156116a9565b61078b8230337f00000000000000000000000000000000000000000000000000000000000000006001600160a01b03166119d7565b610c9f57610fa081048015610c6457600354818110610c1f57816107ae91611748565b6003556107bd82600454611755565b60045562ffffff60065460a01c1660405163f7729d4360e01b815260018060a01b037f0000000000000000000000000000000000000000000000000000000000000000169081600482015260018060a01b037f0000000000000000000000000000000000000000000000000000000000000000169283602483015260448201528360648201525f608482015260208160a4815f60018060a01b037f0000000000000000000000000000000000000000000000000000000000000000165af1908115610b51575f91610bed575b50600b5461271003906127108211610bd957612710916108a8916116f5565b0462ffffff60065460a01c169361012c420190814211610bd9576040519061010082019282841067ffffffffffffffff851117610bc5576040938452948252602082810187815283850198895230606085019081526080850197885260a0850184815260c086019788525f60e08701908152965163414bf38960e01b815295516001600160a01b039081166004880152925183166024870152995162ffffff166044860152518116606485015295516084840152965160a4830152925160c48201529051831660e482015293918491610104918391907f0000000000000000000000000000000000000000000000000000000000000000165af1918215610b51575f92610b90575b506006546040516370a0823160e01b81523060048201529190602090839060249082906001600160a01b03165afa918215610b51575f92610b5c575b506005546001600160a01b031690813b156104d8575f9160848392604051948593849263617ba03760e01b845260048401528860248401523060448401528160648401525af18015610b5157610b3b575b506006546040516370a0823160e01b81523060048201529190602090839060249082906001600160a01b03165afa80156104e4578590610b07575b610a829250611748565b90338452600760205260408420610a9a828254611755565b815560018101610aab848254611755565b90554260028201556004600a54910155610ac781600854611755565b600855604051928352602083015260408201527fb4caaf29adda3eefee3ad552a8e85058589bf834c7466cae4ee58787f70589ed60603392a26001805580f35b506020823d602011610b33575b81610b2160209383611726565b810103126104d857610a829151610a78565b3d9150610b14565b610b489194505f90611726565b5f926024610a3d565b6040513d5f823e3d90fd5b9091506020813d602011610b88575b81610b7860209383611726565b810103126104d85751905f6109ec565b3d9150610b6b565b9091506020813d602011610bbd575b81610bac60209383611726565b810103126104d857519060246109b0565b3d9150610b9f565b634e487b7160e01b5f52604160045260245ffd5b634e487b7160e01b5f52601160045260245ffd5b90506020813d602011610c17575b81610c0860209383611726565b810103126104d857515f610889565b3d9150610bfb565b60405162461bcd60e51b815260206004820152601860248201527f496e73756666696369656e7420455448207265736572766500000000000000006044820152606490fd5b60405162461bcd60e51b8152602060048201526013602482015272165108185b5bdd5b9d081d1bdbc81cdb585b1b606a1b6044820152606490fd5b606460405162461bcd60e51b815260206004820152602060248201527f594420616d6f756e74206d7573742062652067726561746572207468616e20306044820152fd5b346104d8575f3660031901126104d8576005546040516001600160a01b039091168152602090f35b346104d8575f3660031901126104d8576040517f00000000000000000000000000000000000000000000000000000000000000006001600160a01b03168152602090f35b346104d85760403660031901126104d857610d8b610d6b611693565b610d73611762565b5f54602435916001600160a01b0391821691166117a8565b005b346104d8575f3660031901126104d8575f546040516001600160a01b039091168152602090f35b346104d8575f3660031901126104d857610dcc611762565b610dd46119bc565b600160ff1960025416176002557f62e78cea01bee320cd4e420270b5ea74000d11b0c9f74754ebdbfc544b05a2586020604051338152a1005b346104d8575f3660031901126104d8576020600854604051908152f35b346104d8575f3660031901126104d8576040517f00000000000000000000000000000000000000000000000000000000000000006001600160a01b03168152602090f35b346104d8575f3660031901126104d8576040517f00000000000000000000000000000000000000000000000000000000000000006001600160a01b03168152602090f35b346104d8575f3660031901126104d8576020600954604051908152f35b346104d85760203660031901126104d85760043562ffffff8116908181036104d857610ef9611762565b6101f482148015610fa3575b8015610f98575b15610f60576006805462ffffff60a01b191660a09290921b62ffffff60a01b169190911790556040519081527fa068eeeedda58a9bea7f8ad3dfec53e8583a3705555f9954607f86ab639b592190602090a1005b60405162461bcd60e51b815260206004820152601060248201526f496e76616c696420706f6f6c2066656560801b6044820152606490fd5b506127108214610f0c565b50610bb88214610f05565b346104d8575f3660031901126104d857610fc6611762565b5f80546001600160a01b0319811682556001600160a01b03167f8be0079c531659141344cd1fd0a4f28419497f9722a3daafe3b4186f6b6457e08280a3005b346104d85760203660031901126104d85761101e611693565b60018060a01b0381165f52600760205260405f209060405160a0810181811067ffffffffffffffff821117610bc557604052825481526001830154916020820192835261108c60028501549160408401928352600460038701549660608601978852015460808501526118de565b83519091901561114d576006546040516370a0823160e01b81523060048201529590602090879060249082906001600160a01b03165afa958615610b51575f96611117575b506110ec6110e360c0978651906116f5565b60085490611708565b935b5194519151905191604051958652602086015260408501526060840152608083015260a0820152f35b95506020863d602011611145575b8161113260209383611726565b810103126104d8579451946110ec6110d1565b3d9150611125565b60c0945f936110ee565b346104d8575f3660031901126104d857602060ff600254166040519015158152f35b346104d8575f3660031901126104d8576040517f00000000000000000000000000000000000000000000000000000000000000006001600160a01b03168152602090f35b346104d8575f3660031901126104d8576111d5611762565b60025460ff8116156112145760ff19166002557f5db9ee0a495bf2e6ff9c91a7834c1ba4fdd244a5e8aa4e537bd38aeae4b073aa6020604051338152a1005b638dfc202b60e01b5f5260045ffd5b346104d8575f3660031901126104d8576040517f00000000000000000000000000000000000000000000000000000000000000006001600160a01b03168152602090f35b346104d8575f3660031901126104d85761127f611788565b335f52600760205260405f206001810154156113775761129d6117ea565b6112a6336118de565b90811561133b57600381016112bc838254611755565b90556004600a549101556112d281600954611755565b60095561130981337f00000000000000000000000000000000000000000000000000000000000000006001600160a01b03166117a8565b6040519081527ffc30cddea38e2bf4d6ea7d3f9ed3b6ad7f176419f4963bd81318067a4aee73fe60203392a260018055005b60405162461bcd60e51b81526020600482015260146024820152734e6f207265776172647320617661696c61626c6560601b6044820152606490fd5b60405162461bcd60e51b815260206004820152601060248201526f139bc81cdd185ad95908185b5bdd5b9d60821b6044820152606490fd5b346104d85760203660031901126104d8576004356113cb611788565b6113d68115156116a9565b335f52600760205260405f2090815481811061151d5761140460018401916113ff8484546116f5565b611708565b9160018060a01b03600554169160405194631a4ca37b60e21b86526020866064815f60018060a01b037f000000000000000000000000000000000000000000000000000000000000000016988960048401528a60248401523060448401525af1958615610b51575f966114e1575b50826114aa94928261148989966114a09554611748565b9055611496878254611748565b9055600854611748565b60085533906117a8565b60405191825260208201527f92ccf450a286a957af52509bc1c9939d1a6a481783e142e41e2499f0bb66ebc660403392a260018055005b9092939195506020813d602011611515575b8161150060209383611726565b810103126104d85751949092916114a0611472565b3d91506114f3565b60405162461bcd60e51b815260206004820152601a60248201527f496e73756666696369656e74207374616b656420616d6f756e740000000000006044820152606490fd5b346104d85760203660031901126104d8576001600160a01b03611583611693565b165f52600760205260a060405f20805490600181015490600281015460046003830154920154926040519485526020850152604084015260608301526080820152f35b346104d8575f3660031901126104d8576020604051610bb88152f35b346104d85760203660031901126104d8576004356115fe611762565b6103e88111611638576020817fa3370f7fc7573d713f27ae89ba2f193d4b43991622ff969b0475e2f911aacf1a92600b55604051908152a1005b60405162461bcd60e51b81526020600482015260116024820152700a6d8d2e0e0c2ceca40e8dede40d0d2ced607b1b6044820152606490fd5b346104d8575f3660031901126104d85760209062ffffff60065460a01c168152f35b600435906001600160a01b03821682036104d857565b156116b057565b60405162461bcd60e51b815260206004820152601d60248201527f416d6f756e74206d7573742062652067726561746572207468616e20300000006044820152606490fd5b81810292918115918404141715610bd957565b8115611712570490565b634e487b7160e01b5f52601260045260245ffd5b90601f8019910116810190811067ffffffffffffffff821117610bc557604052565b91908203918211610bd957565b91908201809211610bd957565b5f546001600160a01b0316330361177557565b63118cdaa760e01b5f523360045260245ffd5b600260015414611799576002600155565b633ee5aeb560e01b5f5260045ffd5b60405163a9059cbb60e01b60208201526001600160a01b0390921660248301526044808301939093529181526117e8916117e3606483611726565b611a1b565b565b60085480156118db576006546040516370a0823160e01b815230600482015290602090829060249082906001600160a01b03165afa908115610b51575f916118a9575b50818111611839575050565b8161184391611748565b670de0b6b3a7640000810290808204670de0b6b3a76400001490151715610bd95761189c6118947f22da3973732aa4a277b604da5282200d162428ccee60e8d996fc614e8b3d583e93602093611708565b600a54611755565b80600a55604051908152a1565b90506020813d6020116118d3575b816118c460209383611726565b810103126104d857515f61182d565b3d91506118b7565b50565b6001600160a01b03165f9081526007602052604090206001810154156119b7576006546040516370a0823160e01b815230600482015290602090829060249082906001600160a01b03165afa908115610b51575f91611985575b506119486110e3835480936116f5565b8181111561197a5760039161195c91611748565b915b0154808211156119745761197191611748565b90565b50505f90565b505060035f9161195e565b90506020813d6020116119af575b816119a060209383611726565b810103126104d857515f611938565b3d9150611993565b505f90565b60ff600254166119c857565b63d93c066560e01b5f5260045ffd5b6040516323b872dd60e01b60208201526001600160a01b0392831660248201529290911660448301526064808301939093529181526117e8916117e3608483611726565b905f602091828151910182855af115610b51575f513d611a6a57506001600160a01b0381163b155b611a4a5750565b635274afe760e01b5f9081526001600160a01b0391909116600452602490fd5b60011415611a4356fea26469706673582212209c2d6d231aedd9846700d756b75702861c5ff38c99019e68cb5089686b8c8c5e64736f6c634300081c0033",
  "linkReferences": {},
  "deployedLinkReferences": {},
  "immutableReferences": {
    "1179": [
      {
        "length": 32,
        "start": 860
      },
      {
        "length": 32,
        "start": 1383
      },
      {
        "length": 32,
        "start": 1700
      },
      {
        "length": 32,
        "start": 1886
      }
    ],
    "1181": [
      {
        "length": 32,
        "start": 940
      },
      {
        "length": 32,
        "start": 2065
      },
      {
        "length": 32,
        "start": 3715
      },
      {
        "length": 32,
        "start": 4828
      },
      {
        "length": 32,
        "start": 5167
      }
    ],
    "1183": [
      {
        "length": 32,
        "start": 2017
      },
      {
        "length": 32,
        "start": 4664
      }
    ],
    "1185": [
      {
        "length": 32,
        "start": 2432
      },
      {
        "length": 32,
        "start": 4494
      }
    ],
    "1187": [
      {
        "length": 32,
        "start": 1602
      },
      {
        "length": 32,
        "start": 2137
      }
    ],
    "1189": [
      {
        "length": 32,
        "start": 3360
      }
    ],
    "1191": [
      {
        "length": 32,
        "start": 991
      },
      {
        "length": 32,
        "start": 3647
      }
    ]
  },
  "inputSourceName": "project/contracts/StakingSystem.sol",
  "buildInfoId": "solc-0_8_28-57a8475624e4ad259f598efff56d537ed364442f"
}